{
  "_format": "hh-sol-artifact-1",
  "contractName": "HeadsUpFactory",
  "sourceName": "contracts/HeadsUpFactory.sol",
  "abi": [
    {
      "inputs": [
        {
          "internalType": "address",
          "name": "_newOwner",
          "type": "address"
        }
      ],
      "stateMutability": "nonpayable",
      "type": "constructor"
    },
    {
      "inputs": [
        {
          "internalType": "uint256",
          "name": "limit",
          "type": "uint256"
        }
      ],
      "name": "ExceededOffsetLimit",
      "type": "error"
    },
    {
      "anonymous": false,
      "inputs": [
        {
          "indexed": true,
          "internalType": "address",
          "name": "from",
          "type": "address"
        },
        {
          "indexed": true,
          "internalType": "address",
          "name": "to",
          "type": "address"
        }
      ],
      "name": "Launch",
      "type": "event"
    },
    {
      "anonymous": false,
      "inputs": [
        {
          "indexed": true,
          "internalType": "address",
          "name": "previousOwner",
          "type": "address"
        },
        {
          "indexed": true,
          "internalType": "address",
          "name": "newOwner",
          "type": "address"
        }
      ],
      "name": "OwnershipTransferred",
      "type": "event"
    },
    {
      "inputs": [
        {
          "internalType": "uint256",
          "name": "",
          "type": "uint256"
        }
      ],
      "name": "deployedContracts",
      "outputs": [
        {
          "internalType": "address",
          "name": "",
          "type": "address"
        }
      ],
      "stateMutability": "view",
      "type": "function"
    },
    {
      "inputs": [
        {
          "internalType": "address",
          "name": "addr",
          "type": "address"
        },
        {
          "internalType": "uint256",
          "name": "offset",
          "type": "uint256"
        },
        {
          "internalType": "uint256",
          "name": "limit",
          "type": "uint256"
        }
      ],
      "name": "getNewsletters",
      "outputs": [
        {
          "internalType": "address[100]",
          "name": "",
          "type": "address[100]"
        },
        {
          "internalType": "uint256",
          "name": "",
          "type": "uint256"
        }
      ],
      "stateMutability": "view",
      "type": "function"
    },
    {
      "inputs": [
        {
          "internalType": "string",
          "name": "name",
          "type": "string"
        },
        {
          "internalType": "string",
          "name": "symbol",
          "type": "string"
        },
        {
          "internalType": "bytes",
          "name": "jsonUrlHash",
          "type": "bytes"
        }
      ],
      "name": "launchNftFeed",
      "outputs": [],
      "stateMutability": "nonpayable",
      "type": "function"
    },
    {
      "inputs": [],
      "name": "owner",
      "outputs": [
        {
          "internalType": "address",
          "name": "",
          "type": "address"
        }
      ],
      "stateMutability": "view",
      "type": "function"
    },
    {
      "inputs": [],
      "name": "renounceOwnership",
      "outputs": [],
      "stateMutability": "nonpayable",
      "type": "function"
    },
    {
      "inputs": [
        {
          "internalType": "address",
          "name": "newOwner",
          "type": "address"
        }
      ],
      "name": "transferOwnership",
      "outputs": [],
      "stateMutability": "nonpayable",
      "type": "function"
    },
    {
      "inputs": [
        {
          "internalType": "address",
          "name": "",
          "type": "address"
        },
        {
          "internalType": "uint256",
          "name": "",
          "type": "uint256"
        }
      ],
      "name": "userAddressToNewsletters",
      "outputs": [
        {
          "internalType": "address",
          "name": "",
          "type": "address"
        }
      ],
      "stateMutability": "view",
      "type": "function"
    }
  ],
  "bytecode": "0x60806040523480156200001157600080fd5b50604051620062fc380380620062fc8339818101604052810190620000379190620002f6565b620000576200004b6200006f60201b60201c565b6200007760201b60201c565b62000068816200013b60201b60201c565b5062000443565b600033905090565b60008060009054906101000a900473ffffffffffffffffffffffffffffffffffffffff169050816000806101000a81548173ffffffffffffffffffffffffffffffffffffffff021916908373ffffffffffffffffffffffffffffffffffffffff1602179055508173ffffffffffffffffffffffffffffffffffffffff168173ffffffffffffffffffffffffffffffffffffffff167f8be0079c531659141344cd1fd0a4f28419497f9722a3daafe3b4186f6b6457e060405160405180910390a35050565b6200014b620001d260201b60201c565b600073ffffffffffffffffffffffffffffffffffffffff168173ffffffffffffffffffffffffffffffffffffffff161415620001be576040517f08c379a0000000000000000000000000000000000000000000000000000000008152600401620001b590620003af565b60405180910390fd5b620001cf816200007760201b60201c565b50565b620001e26200006f60201b60201c565b73ffffffffffffffffffffffffffffffffffffffff16620002086200026360201b60201c565b73ffffffffffffffffffffffffffffffffffffffff161462000261576040517f08c379a0000000000000000000000000000000000000000000000000000000008152600401620002589062000421565b60405180910390fd5b565b60008060009054906101000a900473ffffffffffffffffffffffffffffffffffffffff16905090565b600080fd5b600073ffffffffffffffffffffffffffffffffffffffff82169050919050565b6000620002be8262000291565b9050919050565b620002d081620002b1565b8114620002dc57600080fd5b50565b600081519050620002f081620002c5565b92915050565b6000602082840312156200030f576200030e6200028c565b5b60006200031f84828501620002df565b91505092915050565b600082825260208201905092915050565b7f4f776e61626c653a206e6577206f776e657220697320746865207a65726f206160008201527f6464726573730000000000000000000000000000000000000000000000000000602082015250565b60006200039760268362000328565b9150620003a48262000339565b604082019050919050565b60006020820190508181036000830152620003ca8162000388565b9050919050565b7f4f776e61626c653a2063616c6c6572206973206e6f7420746865206f776e6572600082015250565b60006200040960208362000328565b91506200041682620003d1565b602082019050919050565b600060208201905081810360008301526200043c81620003fa565b9050919050565b615ea980620004536000396000f3fe60806040523480156200001157600080fd5b5060043610620000885760003560e01c806389b0f418116200006357806389b0f41814620001065780638da5cb5b14620001265780639ad1ee101462000148578063f2fde38b146200017e5762000088565b8063548500af146200008d57806361413e5314620000c3578063715018a614620000fa575b600080fd5b620000ab6004803603810190620000a59190620008a9565b6200019e565b604051620000ba919062000901565b60405180910390f35b620000e16004803603810190620000db91906200091e565b620001ed565b604051620000f192919062000a46565b60405180910390f35b62000104620003c2565b005b6200012460048036038101906200011e919062000b42565b620003da565b005b6200013062000589565b6040516200013f919062000901565b60405180910390f35b62000166600480360381019062000160919062000c08565b620005b2565b60405162000175919062000901565b60405180910390f35b6200019c600480360381019062000196919062000c3a565b620005f2565b005b60026020528160005260406000208181548110620001bb57600080fd5b906000526020600020016000915091509054906101000a900473ffffffffffffffffffffffffffffffffffffffff1681565b620001f7620007ce565b600062000203620007ce565b600060648511156200024e57846040517f959ed34500000000000000000000000000000000000000000000000000000000815260040162000245919062000c6c565b60405180910390fd5b600085876200025e919062000cb8565b905060008790505b600260008a73ffffffffffffffffffffffffffffffffffffffff1673ffffffffffffffffffffffffffffffffffffffff1681526020019081526020016000208054905081108015620002b757508181105b15620003b057600260008a73ffffffffffffffffffffffffffffffffffffffff1673ffffffffffffffffffffffffffffffffffffffff168152602001908152602001600020818154811062000311576200031062000d15565b5b9060005260206000200160009054906101000a900473ffffffffffffffffffffffffffffffffffffffff1684826064811062000352576200035162000d15565b5b602002019073ffffffffffffffffffffffffffffffffffffffff16908173ffffffffffffffffffffffffffffffffffffffff168152505060018362000398919062000cb8565b92508080620003a79062000d44565b91505062000266565b50828294509450505050935093915050565b620003cc6200067d565b620003d8600062000702565b565b600086868686868633604051620003f190620007f1565b62000403979695949392919062000e3a565b604051809103906000f08015801562000420573d6000803e3d6000fd5b5090506001819080600181540180825580915050600190039060005260206000200160009091909190916101000a81548173ffffffffffffffffffffffffffffffffffffffff021916908373ffffffffffffffffffffffffffffffffffffffff160217905550600260003373ffffffffffffffffffffffffffffffffffffffff1673ffffffffffffffffffffffffffffffffffffffff168152602001908152602001600020819080600181540180825580915050600190039060005260206000200160009091909190916101000a81548173ffffffffffffffffffffffffffffffffffffffff021916908373ffffffffffffffffffffffffffffffffffffffff1602179055508073ffffffffffffffffffffffffffffffffffffffff163373ffffffffffffffffffffffffffffffffffffffff167fe4b8baaa1c927a55ac28b7693040a55b0b48044cf0572d1fc3beb0f418054a2060405160405180910390a350505050505050565b60008060009054906101000a900473ffffffffffffffffffffffffffffffffffffffff16905090565b60018181548110620005c357600080fd5b906000526020600020016000915054906101000a900473ffffffffffffffffffffffffffffffffffffffff1681565b620005fc6200067d565b600073ffffffffffffffffffffffffffffffffffffffff168173ffffffffffffffffffffffffffffffffffffffff1614156200066f576040517f08c379a0000000000000000000000000000000000000000000000000000000008152600401620006669062000f18565b60405180910390fd5b6200067a8162000702565b50565b62000687620007c6565b73ffffffffffffffffffffffffffffffffffffffff16620006a762000589565b73ffffffffffffffffffffffffffffffffffffffff161462000700576040517f08c379a0000000000000000000000000000000000000000000000000000000008152600401620006f79062000f8a565b60405180910390fd5b565b60008060009054906101000a900473ffffffffffffffffffffffffffffffffffffffff169050816000806101000a81548173ffffffffffffffffffffffffffffffffffffffff021916908373ffffffffffffffffffffffffffffffffffffffff1602179055508173ffffffffffffffffffffffffffffffffffffffff168173ffffffffffffffffffffffffffffffffffffffff167f8be0079c531659141344cd1fd0a4f28419497f9722a3daafe3b4186f6b6457e060405160405180910390a35050565b600033905090565b60405180610c800160405280606490602082028036833780820191505090505090565b614ec78062000fad83390190565b600080fd5b600080fd5b600073ffffffffffffffffffffffffffffffffffffffff82169050919050565b6000620008368262000809565b9050919050565b620008488162000829565b81146200085457600080fd5b50565b60008135905062000868816200083d565b92915050565b6000819050919050565b62000883816200086e565b81146200088f57600080fd5b50565b600081359050620008a38162000878565b92915050565b60008060408385031215620008c357620008c2620007ff565b5b6000620008d38582860162000857565b9250506020620008e68582860162000892565b9150509250929050565b620008fb8162000829565b82525050565b6000602082019050620009186000830184620008f0565b92915050565b6000806000606084860312156200093a5762000939620007ff565b5b60006200094a8682870162000857565b93505060206200095d8682870162000892565b9250506040620009708682870162000892565b9150509250925092565b600060649050919050565b600081905092915050565b6000819050919050565b620009a58162000829565b82525050565b6000620009b983836200099a565b60208301905092915050565b6000602082019050919050565b620009dd816200097a565b620009e9818462000985565b9250620009f68262000990565b8060005b8381101562000a2d57815162000a118782620009ab565b965062000a1e83620009c5565b925050600181019050620009fa565b505050505050565b62000a40816200086e565b82525050565b6000610ca08201905062000a5e6000830185620009d2565b62000a6e610c8083018462000a35565b9392505050565b600080fd5b600080fd5b600080fd5b60008083601f84011262000a9d5762000a9c62000a75565b5b8235905067ffffffffffffffff81111562000abd5762000abc62000a7a565b5b60208301915083600182028301111562000adc5762000adb62000a7f565b5b9250929050565b60008083601f84011262000afc5762000afb62000a75565b5b8235905067ffffffffffffffff81111562000b1c5762000b1b62000a7a565b5b60208301915083600182028301111562000b3b5762000b3a62000a7f565b5b9250929050565b6000806000806000806060878903121562000b625762000b61620007ff565b5b600087013567ffffffffffffffff81111562000b835762000b8262000804565b5b62000b9189828a0162000a84565b9650965050602087013567ffffffffffffffff81111562000bb75762000bb662000804565b5b62000bc589828a0162000a84565b9450945050604087013567ffffffffffffffff81111562000beb5762000bea62000804565b5b62000bf989828a0162000ae3565b92509250509295509295509295565b60006020828403121562000c215762000c20620007ff565b5b600062000c318482850162000892565b91505092915050565b60006020828403121562000c535762000c52620007ff565b5b600062000c638482850162000857565b91505092915050565b600060208201905062000c83600083018462000a35565b92915050565b7f4e487b7100000000000000000000000000000000000000000000000000000000600052601160045260246000fd5b600062000cc5826200086e565b915062000cd2836200086e565b9250827fffffffffffffffffffffffffffffffffffffffffffffffffffffffffffffffff0382111562000d0a5762000d0962000c89565b5b828201905092915050565b7f4e487b7100000000000000000000000000000000000000000000000000000000600052603260045260246000fd5b600062000d51826200086e565b91507fffffffffffffffffffffffffffffffffffffffffffffffffffffffffffffffff82141562000d875762000d8662000c89565b5b600182019050919050565b600082825260208201905092915050565b82818337600083830152505050565b6000601f19601f8301169050919050565b600062000dd1838562000d92565b935062000de083858462000da3565b62000deb8362000db2565b840190509392505050565b600082825260208201905092915050565b600062000e15838562000df6565b935062000e2483858462000da3565b62000e2f8362000db2565b840190509392505050565b6000608082019050818103600083015262000e5781898b62000dc3565b9050818103602083015262000e6e81878962000dc3565b9050818103604083015262000e8581858762000e07565b905062000e966060830184620008f0565b98975050505050505050565b7f4f776e61626c653a206e6577206f776e657220697320746865207a65726f206160008201527f6464726573730000000000000000000000000000000000000000000000000000602082015250565b600062000f0060268362000d92565b915062000f0d8262000ea2565b604082019050919050565b6000602082019050818103600083015262000f338162000ef1565b9050919050565b7f4f776e61626c653a2063616c6c6572206973206e6f7420746865206f776e6572600082015250565b600062000f7260208362000d92565b915062000f7f8262000f3a565b602082019050919050565b6000602082019050818103600083015262000fa58162000f63565b905091905056fe60806040523480156200001157600080fd5b5060405162004ec738038062004ec7833981810160405281019062000037919062000a5f565b8383828282828062000054816200031960201b620012f01760201c565b50620000c47feafec4d89fa9619884b60000a4d96624a38f7ac2d8d9a604ecf07c12c77e480c60001b6040518060400160405280600481526020017fa4d96624000000000000000000000000000000000000000000000000000000008152506200042160201b620013ef1760201c565b620000fe7fdeba1e292f8ba88238e10ab3c7f88bd4be4fac56cad5194b6ecceaf653468af160001b846200042160201b620013ef1760201c565b620001387f2f0a68ab07768e01943a599e73362a0e17a63a72e94dd2e384d2c1d4db93275660001b836200042160201b620013ef1760201c565b5050505050506000846040518060400160405280600281526020017f5b5d0000000000000000000000000000000000000000000000000000000000008152506040516020016200018a92919062000b7b565b60405160208183030381529060405290506000620001b3826200047c60201b620014481760201c565b600781905550620001ee7f9afb95cacc9f95858ec44aa8c3b685511002e30ae54415823f406128b85b238e60001b856200058d60201b60201c565b620002236007548260405160200162000208919062000bd2565b6040516020818303038152906040526200058d60201b60201c565b6200027a7f715f248956de7ce65e94d9d836bfead479f7e70d69b718d47bfe7b00e05b4fe460001b60026040516020016200025f919062000bd2565b6040516020818303038152906040526200058d60201b60201c565b60006040518060400160405280600f81526020017f6b656363616b32353628757466382900000000000000000000000000000000008152509050620002f481620002c96200066460201b60201c565b60405180606001604052806035815260200162004e69603591396200068560201b6200154b1760201c565b600890805190602001906200030b929190620006f9565b505050505050505062000e55565b62000329620006d060201b60201c565b73ffffffffffffffffffffffffffffffffffffffff168173ffffffffffffffffffffffffffffffffffffffff16146200041e5760008060009054906101000a900473ffffffffffffffffffffffffffffffffffffffff169050816000806101000a81548173ffffffffffffffffffffffffffffffffffffffff021916908373ffffffffffffffffffffffffffffffffffffffff1602179055508173ffffffffffffffffffffffffffffffffffffffff168173ffffffffffffffffffffffffffffffffffffffff167f8be0079c531659141344cd1fd0a4f28419497f9722a3daafe3b4186f6b6457e060405160405180910390a3505b50565b806001600084815260200190815260200160002090805190602001906200044a929190620006f9565b50817fcdf4e344c0d23d4cdd0474039d176c55b19d531070dbe17856bfb993a5b5720b60405160405180910390a25050565b600080829050605b60f81b816002835162000498919062000c1e565b81518110620004ac57620004ab62000c59565b5b602001015160f81c60f81b7effffffffffffffffffffffffffffffffffffffffffffffffffffffffffffff19161480156200053b5750605d60f81b8160018351620004f8919062000c1e565b815181106200050c576200050b62000c59565b5b602001015160f81c60f81b7effffffffffffffffffffffffffffffffffffffffffffffffffffffffffffff1916145b6200057d576040517f08c379a0000000000000000000000000000000000000000000000000000000008152600401620005749062000d0f565b60405180910390fd5b8080519060200120915050919050565b7fdeba1e292f8ba88238e10ab3c7f88bd4be4fac56cad5194b6ecceaf653468af160001b821415620005eb576040517f85c169bd00000000000000000000000000000000000000000000000000000000815260040160405180910390fd5b7f2f0a68ab07768e01943a599e73362a0e17a63a72e94dd2e384d2c1d4db93275660001b82141562000649576040517f76755b3800000000000000000000000000000000000000000000000000000000815260040160405180910390fd5b6200066082826200042160201b620013ef1760201c565b5050565b606060405180606001604052806029815260200162004e9e60299139905090565b6060600084805190602001209050600084805190602001209050818185604051602001620006b69392919062000db1565b604051602081830303815290604052925050509392505050565b60008060009054906101000a900473ffffffffffffffffffffffffffffffffffffffff16905090565b828054620007079062000e1f565b90600052602060002090601f0160209004810192826200072b576000855562000777565b82601f106200074657805160ff191683800117855562000777565b8280016001018555821562000777579182015b828111156200077657825182559160200191906001019062000759565b5b5090506200078691906200078a565b5090565b5b80821115620007a55760008160009055506001016200078b565b5090565b6000604051905090565b600080fd5b600080fd5b600080fd5b600080fd5b6000601f19601f8301169050919050565b7f4e487b7100000000000000000000000000000000000000000000000000000000600052604160045260246000fd5b6200081282620007c7565b810181811067ffffffffffffffff82111715620008345762000833620007d8565b5b80604052505050565b600062000849620007a9565b905062000857828262000807565b919050565b600067ffffffffffffffff8211156200087a5762000879620007d8565b5b6200088582620007c7565b9050602081019050919050565b60005b83811015620008b257808201518184015260208101905062000895565b83811115620008c2576000848401525b50505050565b6000620008df620008d9846200085c565b6200083d565b905082815260208101848484011115620008fe57620008fd620007c2565b5b6200090b84828562000892565b509392505050565b600082601f8301126200092b576200092a620007bd565b5b81516200093d848260208601620008c8565b91505092915050565b600067ffffffffffffffff821115620009645762000963620007d8565b5b6200096f82620007c7565b9050602081019050919050565b6000620009936200098d8462000946565b6200083d565b905082815260208101848484011115620009b257620009b1620007c2565b5b620009bf84828562000892565b509392505050565b600082601f830112620009df57620009de620007bd565b5b8151620009f18482602086016200097c565b91505092915050565b600073ffffffffffffffffffffffffffffffffffffffff82169050919050565b600062000a2782620009fa565b9050919050565b62000a398162000a1a565b811462000a4557600080fd5b50565b60008151905062000a598162000a2e565b92915050565b6000806000806080858703121562000a7c5762000a7b620007b3565b5b600085015167ffffffffffffffff81111562000a9d5762000a9c620007b8565b5b62000aab8782880162000913565b945050602085015167ffffffffffffffff81111562000acf5762000ace620007b8565b5b62000add8782880162000913565b935050604085015167ffffffffffffffff81111562000b015762000b00620007b8565b5b62000b0f87828801620009c7565b925050606062000b228782880162000a48565b91505092959194509250565b600081519050919050565b600081905092915050565b600062000b518262000b2e565b62000b5d818562000b39565b935062000b6f81856020860162000892565b80840191505092915050565b600062000b89828562000b44565b915062000b97828462000b44565b91508190509392505050565b6000819050919050565b6000819050919050565b62000bcc62000bc68262000ba3565b62000bad565b82525050565b600062000be0828462000bb7565b60208201915081905092915050565b7f4e487b7100000000000000000000000000000000000000000000000000000000600052601160045260246000fd5b600062000c2b8262000ba3565b915062000c388362000ba3565b92508282101562000c4e5762000c4d62000bef565b5b828203905092915050565b7f4e487b7100000000000000000000000000000000000000000000000000000000600052603260045260246000fd5b600082825260208201905092915050565b7f4d697373696e6720656d7074792073717561726520627261636b65747320275b60008201527f5d272061742074686520656e64206f6620746865206b6579206e616d65000000602082015250565b600062000cf7603d8362000c88565b915062000d048262000c99565b604082019050919050565b6000602082019050818103600083015262000d2a8162000ce8565b9050919050565b60007fffffffff0000000000000000000000000000000000000000000000000000000082169050919050565b6000819050919050565b62000d7c62000d768262000d31565b62000d5d565b82525050565b6000819050919050565b6000819050919050565b62000dab62000da58262000d82565b62000d8c565b82525050565b600062000dbf828662000d67565b60048201915062000dd1828562000d96565b60208201915062000de3828462000b44565b9150819050949350505050565b7f4e487b7100000000000000000000000000000000000000000000000000000000600052602260045260246000fd5b6000600282049050600182168062000e3857607f821691505b6020821081141562000e4f5762000e4e62000df0565b5b50919050565b6140048062000e656000396000f3fe608060405234801561001057600080fd5b50600436106101da5760003560e01c806370a0823111610104578063a3b261f2116100a2578063cf5182ba11610071578063cf5182ba14610569578063d5ea64f714610585578063e1708614146105a1578063f2fde38b146105ab576101da565b8063a3b261f2146104e1578063a81acdab14610511578063af3efead1461052f578063c30242b21461054b576101da565b80638da5cb5b116100de5780638da5cb5b1461045757806391d28a2914610475578063976b31131461049357806398bdf6f5146104c3576101da565b806370a0823114610401578063715018a6146104315780637f23690c1461043b576101da565b806330f0d5ae1161017c57806354f6127f1161014b57806354f6127f1461037957806355908868146103a957806357b68e9c146103c5578063655a8bd0146103e3576101da565b806330f0d5ae146102e157806349a6078d146102fd5780634e3e6e9c1461032d578063511b69521461035d576101da565b806318160ddd116101b857806318160ddd14610247578063217b2270146102655780632a3654a4146102955780632a8f42cd146102c5576101da565b806301ffc9a7146101df5780630b0c6d821461020f57806314a6e2931461022b575b600080fd5b6101f960048036038101906101f49190612836565b6105c7565b604051610206919061287e565b60405180910390f35b6102296004803603810190610224919061292d565b610628565b005b61024560048036038101906102409190612c5c565b610769565b005b61024f610814565b60405161025c9190612ced565b60405180910390f35b61027f600480360381019061027a9190612d08565b61081e565b60405161028c9190612d44565b60405180910390f35b6102af60048036038101906102aa919061292d565b6108d2565b6040516102bc919061287e565b60405180910390f35b6102df60048036038101906102da9190612dba565b6108ef565b005b6102fb60048036038101906102f69190612e33565b61099e565b005b61031760048036038101906103129190612d08565b6109e7565b6040516103249190612f1e565b60405180910390f35b61034760048036038101906103429190612f40565b610a14565b60405161035491906130d3565b60405180910390f35b610377600480360381019061037291906130f5565b610bd8565b005b610393600480360381019061038e9190612d08565b610c46565b6040516103a091906131d6565b60405180910390f35b6103c360048036038101906103be91906132bb565b610d30565b005b6103cd610e23565b6040516103da91906133fb565b60405180910390f35b6103eb610e43565b6040516103f8919061342c565b60405180910390f35b61041b60048036038101906104169190613447565b610e49565b6040516104289190612ced565b60405180910390f35b610439610e99565b005b61045560048036038101906104509190613474565b610ead565b005b61045f610ec3565b60405161046c9190612d44565b60405180910390f35b61047d610eec565b60405161048a91906131d6565b60405180910390f35b6104ad60048036038101906104a891906134fc565b610f7a565b6040516104ba91906131d6565b60405180910390f35b6104cb610f97565b6040516104d89190612ced565b60405180910390f35b6104fb60048036038101906104f69190613447565b610f9d565b60405161050891906135e7565b60405180910390f35b610519610fed565b60405161052691906133fb565b60405180910390f35b61054960048036038101906105449190613609565b61100d565b005b61055361102f565b6040516105609190612ced565b60405180910390f35b610583600480360381019061057e919061292d565b61104d565b005b61059f600480360381019061059a9190613652565b611204565b005b6105a961126a565b005b6105c560048036038101906105c09190613447565b61126c565b005b6000634939914560e01b7bffffffffffffffffffffffffffffffffffffffffffffffffffffffff1916827bffffffffffffffffffffffffffffffffffffffffffffffffffffffff19161480610621575061062082611594565b5b9050919050565b60006106338261081e565b9050600061063f6115f5565b90508073ffffffffffffffffffffffffffffffffffffffff168273ffffffffffffffffffffffffffffffffffffffff16146106b5578183826040517f5b271ea20000000000000000000000000000000000000000000000000000000081526004016106ac939291906136b2565b60405180910390fd5b600073ffffffffffffffffffffffffffffffffffffffff168473ffffffffffffffffffffffffffffffffffffffff16141561071c576040517f9577b8b300000000000000000000000000000000000000000000000000000000815260040160405180910390fd5b8373ffffffffffffffffffffffffffffffffffffffff168273ffffffffffffffffffffffffffffffffffffffff161415610757575050610765565b6107628483856115fd565b50505b5050565b610771611683565b80518251146107b5576040517f08c379a00000000000000000000000000000000000000000000000000000000081526004016107ac9061375b565b60405180910390fd5b60005b825181101561080f576107ff8382815181106107d7576107d661377b565b5b60200260200101518383815181106107f2576107f161377b565b5b60200260200101516116fa565b610808816117c2565b90506107b8565b505050565b6000600254905090565b6000806003600084815260200190815260200160002060009054906101000a900473ffffffffffffffffffffffffffffffffffffffff169050600073ffffffffffffffffffffffffffffffffffffffff168173ffffffffffffffffffffffffffffffffffffffff1614156108c957826040517fae8f9a360000000000000000000000000000000000000000000000000000000081526004016108c0919061342c565b60405180910390fd5b80915050919050565b60006108dd826117cf565b6108e7838361181c565b905092915050565b6108f7611683565b600061090460075461188e565b61090d906137dc565b60001c905061096b61092160075483611933565b84848080601f016020809104026020016040519081016040528093929190818152602001838380828437600081840152601f19601f820116905080830192505050505050506116fa565b610999600754600183016040516020016109859190613864565b6040516020818303038152906040526116fa565b505050565b6109e43360065460001b836040518060400160405280600a81526020017f6d696e7420746f6b656e00000000000000000000000000000000000000000000815250611958565b50565b60606109f2826117cf565b610a0d60056000848152602001908152602001600020611b46565b9050919050565b6060815167ffffffffffffffff811115610a3157610a30612983565b5b604051908082528060200260200182016040528015610a6457816020015b6060815260200190600190039081610a4f5790505b50905060005b8251811015610bd257828181518110610a8657610a8561377b565b5b602002602001015173ffffffffffffffffffffffffffffffffffffffff19166b9a26b4060ae7f7d5e3cd000060a01b73ffffffffffffffffffffffffffffffffffffffff19161415610b805760088054610adf906138ae565b80601f0160208091040260200160405190810160405280929190818152602001828054610b0b906138ae565b8015610b585780601f10610b2d57610100808354040283529160200191610b58565b820191906000526020600020905b815481529060010190602001808311610b3b57829003601f168201915b5050505050828281518110610b7057610b6f61377b565b5b6020026020010181905250610bc2565b610ba3838281518110610b9657610b9561377b565b5b602002602001015161188e565b828281518110610bb657610bb561377b565b5b60200260200101819052505b610bcb816117c2565b9050610a6a565b50919050565b6000610be26115f5565b9050610bee818561181c565b610c315783816040517f1294d2a9000000000000000000000000000000000000000000000000000000008152600401610c289291906138e0565b60405180910390fd5b610c3e8686868686611b67565b505050505050565b60608173ffffffffffffffffffffffffffffffffffffffff19166b9a26b4060ae7f7d5e3cd000060a01b73ffffffffffffffffffffffffffffffffffffffff19161415610d1f5760088054610c9a906138ae565b80601f0160208091040260200160405190810160405280929190818152602001828054610cc6906138ae565b8015610d135780601f10610ce857610100808354040283529160200191610d13565b820191906000526020600020905b815481529060010190602001808311610cf657829003601f168201915b50505050509050610d2b565b610d288261188e565b90505b919050565b83518551141580610d4357508251855114155b80610d5057508051855114155b15610d87576040517f93a8311900000000000000000000000000000000000000000000000000000000815260040160405180910390fd5b60005b8551811015610e1b57610e08868281518110610da957610da861377b565b5b6020026020010151868381518110610dc457610dc361377b565b5b6020026020010151868481518110610ddf57610dde61377b565b5b602002602001015186868681518110610dfb57610dfa61377b565b5b6020026020010151610bd8565b8080610e1390613938565b915050610d8a565b505050505050565b6060604051806060016040528060298152602001613fa660299139905090565b60075481565b6000610e92600460008473ffffffffffffffffffffffffffffffffffffffff1673ffffffffffffffffffffffffffffffffffffffff168152602001908152602001600020611df2565b9050919050565b610ea1611683565b610eab60006112f0565b565b610eb5611683565b610ebf82826116fa565b5050565b60008060009054906101000a900473ffffffffffffffffffffffffffffffffffffffff16905090565b60088054610ef9906138ae565b80601f0160208091040260200160405190810160405280929190818152602001828054610f25906138ae565b8015610f725780601f10610f4757610100808354040283529160200191610f72565b820191906000526020600020905b815481529060010190602001808311610f5557829003601f168201915b505050505081565b6060610f90610f8b60075484611933565b61188e565b9050919050565b60065481565b6060610fe6600460008473ffffffffffffffffffffffffffffffffffffffff1673ffffffffffffffffffffffffffffffffffffffff168152602001908152602001600020611e07565b9050919050565b6060604051806060016040528060338152602001613f7360339139905090565b611015611683565b806008908051906020019061102b929190612727565b5050565b600061103c60075461188e565b611045906137dc565b60001c905090565b60006110588261081e565b905060006110646115f5565b90508073ffffffffffffffffffffffffffffffffffffffff168273ffffffffffffffffffffffffffffffffffffffff16146110da578183826040517f5b271ea20000000000000000000000000000000000000000000000000000000081526004016110d1939291906136b2565b60405180910390fd5b600073ffffffffffffffffffffffffffffffffffffffff168473ffffffffffffffffffffffffffffffffffffffff161415611141576040517f9577b8b300000000000000000000000000000000000000000000000000000000815260040160405180910390fd5b8373ffffffffffffffffffffffffffffffffffffffff168273ffffffffffffffffffffffffffffffffffffffff16141561117c575050611200565b6111a18460056000868152602001908152602001600020611e1c90919063ffffffff16565b50828273ffffffffffffffffffffffffffffffffffffffff168573ffffffffffffffffffffffffffffffffffffffff167f34b797fc5a526f7bf1d2b5de25f6564fd85ae364e3ee939aee7c1ac27871a98860405160405180910390a450505b5050565b61120c611683565b61126561121b60075483611933565b84848080601f016020809104026020016040519081016040528093929190818152602001838380828437600081840152601f19601f820116905080830192505050505050506116fa565b505050565b565b611274611683565b600073ffffffffffffffffffffffffffffffffffffffff168173ffffffffffffffffffffffffffffffffffffffff1614156112e4576040517f08c379a00000000000000000000000000000000000000000000000000000000081526004016112db906139f3565b60405180910390fd5b6112ed816112f0565b50565b6112f8610ec3565b73ffffffffffffffffffffffffffffffffffffffff168173ffffffffffffffffffffffffffffffffffffffff16146113ec5760008060009054906101000a900473ffffffffffffffffffffffffffffffffffffffff169050816000806101000a81548173ffffffffffffffffffffffffffffffffffffffff021916908373ffffffffffffffffffffffffffffffffffffffff1602179055508173ffffffffffffffffffffffffffffffffffffffff168173ffffffffffffffffffffffffffffffffffffffff167f8be0079c531659141344cd1fd0a4f28419497f9722a3daafe3b4186f6b6457e060405160405180910390a3505b50565b80600160008481526020019081526020016000209080519060200190611416929190612727565b50817fcdf4e344c0d23d4cdd0474039d176c55b19d531070dbe17856bfb993a5b5720b60405160405180910390a25050565b600080829050605b60f81b81600283516114629190613a13565b815181106114735761147261377b565b5b602001015160f81c60f81b7effffffffffffffffffffffffffffffffffffffffffffffffffffffffffffff19161480156114fc5750605d60f81b81600183516114bc9190613a13565b815181106114cd576114cc61377b565b5b602001015160f81c60f81b7effffffffffffffffffffffffffffffffffffffffffffffffffffffffffffff1916145b61153b576040517f08c379a000000000000000000000000000000000000000000000000000000000815260040161153290613ab9565b60405180910390fd5b8080519060200120915050919050565b606060008480519060200120905060008480519060200120905081818560405160200161157a93929190613b57565b604051602081830303815290604052925050509392505050565b600063714df77c60e01b7bffffffffffffffffffffffffffffffffffffffffffffffffffffffff1916827bffffffffffffffffffffffffffffffffffffffffffffffffffffffff191614806115ee57506115ed82611e4c565b5b9050919050565b600033905090565b6116228360056000848152602001908152602001600020611eb690919063ffffffff16565b50808273ffffffffffffffffffffffffffffffffffffffff168473ffffffffffffffffffffffffffffffffffffffff167f17d5389f6ab6adb2647dfa0aa365c323d37adacc30b33a65310b6158ce1373d560405160405180910390a4505050565b3373ffffffffffffffffffffffffffffffffffffffff166116a2610ec3565b73ffffffffffffffffffffffffffffffffffffffff16146116f8576040517f08c379a00000000000000000000000000000000000000000000000000000000081526004016116ef90613bdc565b60405180910390fd5b565b7fdeba1e292f8ba88238e10ab3c7f88bd4be4fac56cad5194b6ecceaf653468af160001b821415611757576040517f85c169bd00000000000000000000000000000000000000000000000000000000815260040160405180910390fd5b7f2f0a68ab07768e01943a599e73362a0e17a63a72e94dd2e384d2c1d4db93275660001b8214156117b4576040517f76755b3800000000000000000000000000000000000000000000000000000000815260040160405180910390fd5b6117be82826113ef565b5050565b6000600182019050919050565b6117d881611ee6565b61181957806040517fae8f9a36000000000000000000000000000000000000000000000000000000008152600401611810919061342c565b60405180910390fd5b50565b6000806118288361081e565b90508073ffffffffffffffffffffffffffffffffffffffff168473ffffffffffffffffffffffffffffffffffffffff16148061188557506118848460056000868152602001908152602001600020611f5290919063ffffffff16565b5b91505092915050565b60606001600083815260200190815260200160002080546118ae906138ae565b80601f01602080910402602001604051908101604052809291908181526020018280546118da906138ae565b80156119275780601f106118fc57610100808354040283529160200191611927565b820191906000526020600020905b81548152906001019060200180831161190a57829003601f168201915b50505050509050919050565b600080611943848460801b611f82565b90508061194f906137dc565b91505092915050565b600073ffffffffffffffffffffffffffffffffffffffff168473ffffffffffffffffffffffffffffffffffffffff1614156119bf576040517f24ecef4d00000000000000000000000000000000000000000000000000000000815260040160405180910390fd5b6119c883611ee6565b15611a0a57826040517f34c7b511000000000000000000000000000000000000000000000000000000008152600401611a01919061342c565b60405180910390fd5b6000611a146115f5565b9050611a2260008686611fae565b611a7384600460008873ffffffffffffffffffffffffffffffffffffffff1673ffffffffffffffffffffffffffffffffffffffff16815260200190815260200160002061205390919063ffffffff16565b50846003600086815260200190815260200160002060006101000a81548173ffffffffffffffffffffffffffffffffffffffff021916908373ffffffffffffffffffffffffffffffffffffffff160217905550838573ffffffffffffffffffffffffffffffffffffffff16600073ffffffffffffffffffffffffffffffffffffffff167fb333c813a7426a7a11e2b190cad52c44119421594b47f6f32ace6d8c7207b2bf848787604051611b2993929190613bfc565b60405180910390a4611b3f60008686868661206a565b5050505050565b60606000611b568360000161220c565b905060608190508092505050919050565b6000611b728461081e565b90508573ffffffffffffffffffffffffffffffffffffffff168173ffffffffffffffffffffffffffffffffffffffff1614611be8578084876040517f5b271ea2000000000000000000000000000000000000000000000000000000008152600401611bdf939291906136b2565b60405180910390fd5b600073ffffffffffffffffffffffffffffffffffffffff168573ffffffffffffffffffffffffffffffffffffffff161415611c4f576040517f24ecef4d00000000000000000000000000000000000000000000000000000000815260040160405180910390fd5b6000611c596115f5565b9050611c66878787611fae565b611c708786612268565b611cc185600460008a73ffffffffffffffffffffffffffffffffffffffff1673ffffffffffffffffffffffffffffffffffffffff1681526020019081526020016000206122d590919063ffffffff16565b50611d1385600460008973ffffffffffffffffffffffffffffffffffffffff1673ffffffffffffffffffffffffffffffffffffffff16815260200190815260200160002061205390919063ffffffff16565b50856003600087815260200190815260200160002060006101000a81548173ffffffffffffffffffffffffffffffffffffffff021916908373ffffffffffffffffffffffffffffffffffffffff160217905550848673ffffffffffffffffffffffffffffffffffffffff168873ffffffffffffffffffffffffffffffffffffffff167fb333c813a7426a7a11e2b190cad52c44119421594b47f6f32ace6d8c7207b2bf848888604051611dc893929190613bfc565b60405180910390a4611ddc878787866122ec565b611de9878787878761206a565b50505050505050565b6000611e00826000016123ea565b9050919050565b6060611e158260000161220c565b9050919050565b6000611e44836000018373ffffffffffffffffffffffffffffffffffffffff1660001b6123fb565b905092915050565b60007f01ffc9a7000000000000000000000000000000000000000000000000000000007bffffffffffffffffffffffffffffffffffffffffffffffffffffffff1916827bffffffffffffffffffffffffffffffffffffffffffffffffffffffff1916149050919050565b6000611ede836000018373ffffffffffffffffffffffffffffffffffffffff1660001b61246b565b905092915050565b60008073ffffffffffffffffffffffffffffffffffffffff166003600084815260200190815260200160002060009054906101000a900473ffffffffffffffffffffffffffffffffffffffff1673ffffffffffffffffffffffffffffffffffffffff1614159050919050565b6000611f7a836000018373ffffffffffffffffffffffffffffffffffffffff1660001b61257f565b905092915050565b60608282604051602001611f97929190613c87565b604051602081830303815290604052905092915050565b600073ffffffffffffffffffffffffffffffffffffffff168373ffffffffffffffffffffffffffffffffffffffff161415611ffe57600160026000828254611ff69190613cb3565b925050819055505b600073ffffffffffffffffffffffffffffffffffffffff168273ffffffffffffffffffffffffffffffffffffffff16141561204e576001600260008282546120469190613a13565b925050819055505b505050565b600061206283600001836123fb565b905092915050565b61207b84636bb56a1460e01b6125a2565b15612166576000858585846040516020016120999493929190613d8d565b60405160208183030381529060405290508473ffffffffffffffffffffffffffffffffffffffff16636bb56a147fc7a120a42b6057a0cbed111fbbfbd52fcd96748c04394f77fc2c3adbe0391e0160001b836040518363ffffffff1660e01b8152600401612108929190613dd7565b600060405180830381600087803b15801561212257600080fd5b505af1158015612136573d6000803e3d6000fd5b505050506040513d6000823e3d601f19601f8201168201806040525081019061215f9190613e77565b5050612205565b816122045760008473ffffffffffffffffffffffffffffffffffffffff163b146121c757836040517f4349776d0000000000000000000000000000000000000000000000000000000081526004016121be9190612d44565b60405180910390fd5b836040517f031731370000000000000000000000000000000000000000000000000000000081526004016121fb9190612d44565b60405180910390fd5b5b5050505050565b60608160000180548060200260200160405190810160405280929190818152602001828054801561225c57602002820191906000526020600020905b815481526020019060010190808311612248575b50505050509050919050565b6000600560008381526020019081526020016000209050600061228a826126cd565b905060005b818110156122ce5760006122ad6000856126e290919063ffffffff16565b90506122ba8187876115fd565b5080806122c690613938565b91505061228f565b5050505050565b60006122e4836000018361246b565b905092915050565b6122fd84636bb56a1460e01b6125a2565b156123e45760008484848460405160200161231b9493929190613d8d565b60405160208183030381529060405290508473ffffffffffffffffffffffffffffffffffffffff16636bb56a147f3724c94f0815e936299cca424da4140752198e0beb7931a6e0925d11bc97544c60001b836040518363ffffffff1660e01b815260040161238a929190613dd7565b600060405180830381600087803b1580156123a457600080fd5b505af11580156123b8573d6000803e3d6000fd5b505050506040513d6000823e3d601f19601f820116820180604052508101906123e19190613e77565b50505b50505050565b600081600001805490509050919050565b6000612407838361257f565b612460578260000182908060018154018082558091505060019003906000526020600020016000909190919091505582600001805490508360010160008481526020019081526020016000208190555060019050612465565b600090505b92915050565b6000808360010160008481526020019081526020016000205490506000811461257357600060018261249d9190613a13565b90506000600186600001805490506124b59190613a13565b90508181146125245760008660000182815481106124d6576124d561377b565b5b90600052602060002001549050808760000184815481106124fa576124f961377b565b5b90600052602060002001819055508387600101600083815260200190815260200160002081905550505b8560000180548061253857612537613ec0565b5b600190038181906000526020600020016000905590558560010160008681526020019081526020016000206000905560019350505050612579565b60009150505b92915050565b600080836001016000848152602001908152602001600020541415905092915050565b6000806301ffc9a760e01b836040516024016125be9190613efe565b604051602081830303815290604052907bffffffffffffffffffffffffffffffffffffffffffffffffffffffff19166020820180517bffffffffffffffffffffffffffffffffffffffffffffffffffffffff838183161783525050505090506000808573ffffffffffffffffffffffffffffffffffffffff16617530846040516126489190613f19565b6000604051808303818686fa925050503d8060008114612684576040519150601f19603f3d011682016040523d82523d6000602084013e612689565b606091505b50915091506020815110156126a457600093505050506126c7565b8180156126c15750808060200190518101906126c09190613f45565b5b93505050505b92915050565b60006126db826000016123ea565b9050919050565b60006126f183600001836126fc565b60001c905092915050565b60008260000182815481106127145761271361377b565b5b9060005260206000200154905092915050565b828054612733906138ae565b90600052602060002090601f016020900481019282612755576000855561279c565b82601f1061276e57805160ff191683800117855561279c565b8280016001018555821561279c579182015b8281111561279b578251825591602001919060010190612780565b5b5090506127a991906127ad565b5090565b5b808211156127c65760008160009055506001016127ae565b5090565b6000604051905090565b600080fd5b600080fd5b60007fffffffff0000000000000000000000000000000000000000000000000000000082169050919050565b612813816127de565b811461281e57600080fd5b50565b6000813590506128308161280a565b92915050565b60006020828403121561284c5761284b6127d4565b5b600061285a84828501612821565b91505092915050565b60008115159050919050565b61287881612863565b82525050565b6000602082019050612893600083018461286f565b92915050565b600073ffffffffffffffffffffffffffffffffffffffff82169050919050565b60006128c482612899565b9050919050565b6128d4816128b9565b81146128df57600080fd5b50565b6000813590506128f1816128cb565b92915050565b6000819050919050565b61290a816128f7565b811461291557600080fd5b50565b60008135905061292781612901565b92915050565b60008060408385031215612944576129436127d4565b5b6000612952858286016128e2565b925050602061296385828601612918565b9150509250929050565b600080fd5b6000601f19601f8301169050919050565b7f4e487b7100000000000000000000000000000000000000000000000000000000600052604160045260246000fd5b6129bb82612972565b810181811067ffffffffffffffff821117156129da576129d9612983565b5b80604052505050565b60006129ed6127ca565b90506129f982826129b2565b919050565b600067ffffffffffffffff821115612a1957612a18612983565b5b602082029050602081019050919050565b600080fd5b6000612a42612a3d846129fe565b6129e3565b90508083825260208201905060208402830185811115612a6557612a64612a2a565b5b835b81811015612a8e5780612a7a8882612918565b845260208401935050602081019050612a67565b5050509392505050565b600082601f830112612aad57612aac61296d565b5b8135612abd848260208601612a2f565b91505092915050565b600067ffffffffffffffff821115612ae157612ae0612983565b5b602082029050602081019050919050565b600080fd5b600067ffffffffffffffff821115612b1257612b11612983565b5b612b1b82612972565b9050602081019050919050565b82818337600083830152505050565b6000612b4a612b4584612af7565b6129e3565b905082815260208101848484011115612b6657612b65612af2565b5b612b71848285612b28565b509392505050565b600082601f830112612b8e57612b8d61296d565b5b8135612b9e848260208601612b37565b91505092915050565b6000612bba612bb584612ac6565b6129e3565b90508083825260208201905060208402830185811115612bdd57612bdc612a2a565b5b835b81811015612c2457803567ffffffffffffffff811115612c0257612c0161296d565b5b808601612c0f8982612b79565b85526020850194505050602081019050612bdf565b5050509392505050565b600082601f830112612c4357612c4261296d565b5b8135612c53848260208601612ba7565b91505092915050565b60008060408385031215612c7357612c726127d4565b5b600083013567ffffffffffffffff811115612c9157612c906127d9565b5b612c9d85828601612a98565b925050602083013567ffffffffffffffff811115612cbe57612cbd6127d9565b5b612cca85828601612c2e565b9150509250929050565b6000819050919050565b612ce781612cd4565b82525050565b6000602082019050612d026000830184612cde565b92915050565b600060208284031215612d1e57612d1d6127d4565b5b6000612d2c84828501612918565b91505092915050565b612d3e816128b9565b82525050565b6000602082019050612d596000830184612d35565b92915050565b600080fd5b60008083601f840112612d7a57612d7961296d565b5b8235905067ffffffffffffffff811115612d9757612d96612d5f565b5b602083019150836001820283011115612db357612db2612a2a565b5b9250929050565b60008060208385031215612dd157612dd06127d4565b5b600083013567ffffffffffffffff811115612def57612dee6127d9565b5b612dfb85828601612d64565b92509250509250929050565b612e1081612863565b8114612e1b57600080fd5b50565b600081359050612e2d81612e07565b92915050565b600060208284031215612e4957612e486127d4565b5b6000612e5784828501612e1e565b91505092915050565b600081519050919050565b600082825260208201905092915050565b6000819050602082019050919050565b612e95816128b9565b82525050565b6000612ea78383612e8c565b60208301905092915050565b6000602082019050919050565b6000612ecb82612e60565b612ed58185612e6b565b9350612ee083612e7c565b8060005b83811015612f11578151612ef88882612e9b565b9750612f0383612eb3565b925050600181019050612ee4565b5085935050505092915050565b60006020820190508181036000830152612f388184612ec0565b905092915050565b600060208284031215612f5657612f556127d4565b5b600082013567ffffffffffffffff811115612f7457612f736127d9565b5b612f8084828501612a98565b91505092915050565b600081519050919050565b600082825260208201905092915050565b6000819050602082019050919050565b600081519050919050565b600082825260208201905092915050565b60005b83811015612fef578082015181840152602081019050612fd4565b83811115612ffe576000848401525b50505050565b600061300f82612fb5565b6130198185612fc0565b9350613029818560208601612fd1565b61303281612972565b840191505092915050565b60006130498383613004565b905092915050565b6000602082019050919050565b600061306982612f89565b6130738185612f94565b93508360208202850161308585612fa5565b8060005b858110156130c157848403895281516130a2858261303d565b94506130ad83613051565b925060208a01995050600181019050613089565b50829750879550505050505092915050565b600060208201905081810360008301526130ed818461305e565b905092915050565b600080600080600060a08688031215613111576131106127d4565b5b600061311f888289016128e2565b9550506020613130888289016128e2565b945050604061314188828901612918565b935050606061315288828901612e1e565b925050608086013567ffffffffffffffff811115613173576131726127d9565b5b61317f88828901612b79565b9150509295509295909350565b600082825260208201905092915050565b60006131a882612fb5565b6131b2818561318c565b93506131c2818560208601612fd1565b6131cb81612972565b840191505092915050565b600060208201905081810360008301526131f0818461319d565b905092915050565b600067ffffffffffffffff82111561321357613212612983565b5b602082029050602081019050919050565b6000613237613232846131f8565b6129e3565b9050808382526020820190506020840283018581111561325a57613259612a2a565b5b835b81811015613283578061326f88826128e2565b84526020840193505060208101905061325c565b5050509392505050565b600082601f8301126132a2576132a161296d565b5b81356132b2848260208601613224565b91505092915050565b600080600080600060a086880312156132d7576132d66127d4565b5b600086013567ffffffffffffffff8111156132f5576132f46127d9565b5b6133018882890161328d565b955050602086013567ffffffffffffffff811115613322576133216127d9565b5b61332e8882890161328d565b945050604086013567ffffffffffffffff81111561334f5761334e6127d9565b5b61335b88828901612a98565b935050606061336c88828901612e1e565b925050608086013567ffffffffffffffff81111561338d5761338c6127d9565b5b61339988828901612c2e565b9150509295509295909350565b600081519050919050565b600082825260208201905092915050565b60006133cd826133a6565b6133d781856133b1565b93506133e7818560208601612fd1565b6133f081612972565b840191505092915050565b6000602082019050818103600083015261341581846133c2565b905092915050565b613426816128f7565b82525050565b6000602082019050613441600083018461341d565b92915050565b60006020828403121561345d5761345c6127d4565b5b600061346b848285016128e2565b91505092915050565b6000806040838503121561348b5761348a6127d4565b5b600061349985828601612918565b925050602083013567ffffffffffffffff8111156134ba576134b96127d9565b5b6134c685828601612b79565b9150509250929050565b6134d981612cd4565b81146134e457600080fd5b50565b6000813590506134f6816134d0565b92915050565b600060208284031215613512576135116127d4565b5b6000613520848285016134e7565b91505092915050565b600081519050919050565b600082825260208201905092915050565b6000819050602082019050919050565b61355e816128f7565b82525050565b60006135708383613555565b60208301905092915050565b6000602082019050919050565b600061359482613529565b61359e8185613534565b93506135a983613545565b8060005b838110156135da5781516135c18882613564565b97506135cc8361357c565b9250506001810190506135ad565b5085935050505092915050565b600060208201905081810360008301526136018184613589565b905092915050565b60006020828403121561361f5761361e6127d4565b5b600082013567ffffffffffffffff81111561363d5761363c6127d9565b5b61364984828501612b79565b91505092915050565b60008060006040848603121561366b5761366a6127d4565b5b600084013567ffffffffffffffff811115613689576136886127d9565b5b61369586828701612d64565b935093505060206136a8868287016134e7565b9150509250925092565b60006060820190506136c76000830186612d35565b6136d4602083018561341d565b6136e16040830184612d35565b949350505050565b7f4b657973206c656e677468206e6f7420657175616c20746f2076616c7565732060008201527f6c656e6774680000000000000000000000000000000000000000000000000000602082015250565b60006137456026836133b1565b9150613750826136e9565b604082019050919050565b6000602082019050818103600083015261377481613738565b9050919050565b7f4e487b7100000000000000000000000000000000000000000000000000000000600052603260045260246000fd5b6000819050602082019050919050565b60006137c682516128f7565b80915050919050565b600082821b905092915050565b60006137e782612fb5565b826137f1846137aa565b90506137fc816137ba565b9250602082101561383c576138377fffffffffffffffffffffffffffffffffffffffffffffffffffffffffffffffff836020036008026137cf565b831692505b5050919050565b6000819050919050565b61385e61385982612cd4565b613843565b82525050565b6000613870828461384d565b60208201915081905092915050565b7f4e487b7100000000000000000000000000000000000000000000000000000000600052602260045260246000fd5b600060028204905060018216806138c657607f821691505b602082108114156138da576138d961387f565b5b50919050565b60006040820190506138f5600083018561341d565b6139026020830184612d35565b9392505050565b7f4e487b7100000000000000000000000000000000000000000000000000000000600052601160045260246000fd5b600061394382612cd4565b91507fffffffffffffffffffffffffffffffffffffffffffffffffffffffffffffffff82141561397657613975613909565b5b600182019050919050565b7f4f776e61626c653a206e6577206f776e657220697320746865207a65726f206160008201527f6464726573730000000000000000000000000000000000000000000000000000602082015250565b60006139dd6026836133b1565b91506139e882613981565b604082019050919050565b60006020820190508181036000830152613a0c816139d0565b9050919050565b6000613a1e82612cd4565b9150613a2983612cd4565b925082821015613a3c57613a3b613909565b5b828203905092915050565b7f4d697373696e6720656d7074792073717561726520627261636b65747320275b60008201527f5d272061742074686520656e64206f6620746865206b6579206e616d65000000602082015250565b6000613aa3603d836133b1565b9150613aae82613a47565b604082019050919050565b60006020820190508181036000830152613ad281613a96565b9050919050565b6000819050919050565b613af4613aef826127de565b613ad9565b82525050565b6000819050919050565b613b15613b10826128f7565b613afa565b82525050565b600081905092915050565b6000613b31826133a6565b613b3b8185613b1b565b9350613b4b818560208601612fd1565b80840191505092915050565b6000613b638286613ae3565b600482019150613b738285613b04565b602082019150613b838284613b26565b9150819050949350505050565b7f4f776e61626c653a2063616c6c6572206973206e6f7420746865206f776e6572600082015250565b6000613bc66020836133b1565b9150613bd182613b90565b602082019050919050565b60006020820190508181036000830152613bf581613bb9565b9050919050565b6000606082019050613c116000830186612d35565b613c1e602083018561286f565b8181036040830152613c30818461319d565b9050949350505050565b60007fffffffffffffffffffffffffffffffff0000000000000000000000000000000082169050919050565b6000819050919050565b613c81613c7c82613c3a565b613c66565b82525050565b6000613c938285613c70565b601082019150613ca38284613c70565b6010820191508190509392505050565b6000613cbe82612cd4565b9150613cc983612cd4565b9250827fffffffffffffffffffffffffffffffffffffffffffffffffffffffffffffffff03821115613cfe57613cfd613909565b5b828201905092915050565b60008160601b9050919050565b6000613d2182613d09565b9050919050565b6000613d3382613d16565b9050919050565b613d4b613d46826128b9565b613d28565b82525050565b600081905092915050565b6000613d6782612fb5565b613d718185613d51565b9350613d81818560208601612fd1565b80840191505092915050565b6000613d998287613d3a565b601482019150613da98286613d3a565b601482019150613db98285613b04565b602082019150613dc98284613d5c565b915081905095945050505050565b6000604082019050613dec600083018561341d565b8181036020830152613dfe818461319d565b90509392505050565b6000613e1a613e1584612af7565b6129e3565b905082815260208101848484011115613e3657613e35612af2565b5b613e41848285612fd1565b509392505050565b600082601f830112613e5e57613e5d61296d565b5b8151613e6e848260208601613e07565b91505092915050565b600060208284031215613e8d57613e8c6127d4565b5b600082015167ffffffffffffffff811115613eab57613eaa6127d9565b5b613eb784828501613e49565b91505092915050565b7f4e487b7100000000000000000000000000000000000000000000000000000000600052603160045260246000fd5b613ef8816127de565b82525050565b6000602082019050613f136000830184613eef565b92915050565b6000613f258284613d5c565b915081905092915050565b600081519050613f3f81612e07565b92915050565b600060208284031215613f5b57613f5a6127d4565b5b6000613f6984828501613f30565b9150509291505056fe7b224c5350344d65746164617461223a7b226465736372697074696f6e223a22746f6b656e20636f6c6c656374696f6e227d7d7b224c5350344d65746164617461223a7b226465736372697074696f6e223a22746f6b656e7a227d7da26469706673582212205f637de9d32c489fb8b9ce3856713afb40ad857a476823cb94968f9eee42658e64736f6c63430008090033697066733a2f2f516d54737a3958796b63354a55416655613677574e726e4b6d546a64444d47464a526d46665145654c51397838757b224c5350344d65746164617461223a7b226465736372697074696f6e223a22746f6b656e7a227d7da2646970667358221220a187ffd75b24eb6065e26c29c76d15657abcc38c0a4eaf7671f0704288219f1564736f6c63430008090033",
  "linkReferences": {},
  "deployedLinkReferences": {}
}